{
  "contractName": "Conference",
  "abi": [
    {
      "constant": true,
      "inputs": [],
      "name": "name",
      "outputs": [
        {
          "name": "",
          "type": "string"
        }
      ],
      "payable": false,
      "stateMutability": "view",
      "type": "function"
    },
    {
      "constant": true,
      "inputs": [
        {
          "name": "",
          "type": "address"
        }
      ],
      "name": "registrantsPaid",
      "outputs": [
        {
          "name": "",
          "type": "uint256"
        }
      ],
      "payable": false,
      "stateMutability": "view",
      "type": "function"
    },
    {
      "constant": true,
      "inputs": [],
      "name": "reward",
      "outputs": [
        {
          "name": "",
          "type": "uint256"
        }
      ],
      "payable": false,
      "stateMutability": "view",
      "type": "function"
    },
    {
      "constant": true,
      "inputs": [],
      "name": "organizer",
      "outputs": [
        {
          "name": "",
          "type": "address"
        }
      ],
      "payable": false,
      "stateMutability": "view",
      "type": "function"
    },
    {
      "constant": true,
      "inputs": [],
      "name": "description",
      "outputs": [
        {
          "name": "",
          "type": "string"
        }
      ],
      "payable": false,
      "stateMutability": "view",
      "type": "function"
    },
    {
      "constant": true,
      "inputs": [],
      "name": "quota",
      "outputs": [
        {
          "name": "",
          "type": "uint256"
        }
      ],
      "payable": false,
      "stateMutability": "view",
      "type": "function"
    },
    {
      "constant": true,
      "inputs": [],
      "name": "numRegistrants",
      "outputs": [
        {
          "name": "",
          "type": "uint256"
        }
      ],
      "payable": false,
      "stateMutability": "view",
      "type": "function"
    },
    {
      "constant": true,
      "inputs": [],
      "name": "contractor",
      "outputs": [
        {
          "name": "",
          "type": "address"
        }
      ],
      "payable": false,
      "stateMutability": "view",
      "type": "function"
    },
    {
      "inputs": [],
      "payable": false,
      "stateMutability": "nonpayable",
      "type": "constructor"
    },
    {
      "anonymous": false,
      "inputs": [
        {
          "indexed": false,
          "name": "_from",
          "type": "address"
        },
        {
          "indexed": false,
          "name": "_amount",
          "type": "uint256"
        }
      ],
      "name": "Deposit",
      "type": "event"
    },
    {
      "anonymous": false,
      "inputs": [
        {
          "indexed": false,
          "name": "_to",
          "type": "address"
        },
        {
          "indexed": false,
          "name": "_amount",
          "type": "uint256"
        }
      ],
      "name": "Refund",
      "type": "event"
    },
    {
      "constant": false,
      "inputs": [
        {
          "name": "_name",
          "type": "string"
        },
        {
          "name": "_description",
          "type": "string"
        }
      ],
      "name": "createConference",
      "outputs": [],
      "payable": true,
      "stateMutability": "payable",
      "type": "function"
    },
    {
      "constant": false,
      "inputs": [],
      "name": "applyToJob",
      "outputs": [],
      "payable": true,
      "stateMutability": "payable",
      "type": "function"
    },
    {
      "constant": false,
      "inputs": [
        {
          "name": "newquota",
          "type": "uint256"
        }
      ],
      "name": "changeQuota",
      "outputs": [],
      "payable": false,
      "stateMutability": "nonpayable",
      "type": "function"
    },
    {
      "constant": false,
      "inputs": [],
      "name": "successfulProject",
      "outputs": [],
      "payable": false,
      "stateMutability": "nonpayable",
      "type": "function"
    },
    {
      "constant": false,
      "inputs": [
        {
          "name": "recipient",
          "type": "address"
        },
        {
          "name": "amount",
          "type": "uint256"
        }
      ],
      "name": "resignFromJob",
      "outputs": [],
      "payable": false,
      "stateMutability": "nonpayable",
      "type": "function"
    },
    {
      "constant": false,
      "inputs": [],
      "name": "destroy",
      "outputs": [],
      "payable": false,
      "stateMutability": "nonpayable",
      "type": "function"
    }
  ],
  "bytecode": "0x608060405234801561001057600080fd5b50610ca1806100206000396000f3006080604052600436106100d0576000357c0100000000000000000000000000000000000000000000000000000000900463ffffffff16806306fdde03146100d557806313381fbf14610165578063228cb733146101bc57806356c1a053146101e757806361203265146101f15780637284e416146102485780637e4104fa146102d857806383197ef0146102ef578063a977c71e14610306578063cebe09c914610333578063dbe64b5b1461035e578063e83c058f14610400578063ec3a6f731461044d578063fbfd204514610478575b600080fd5b3480156100e157600080fd5b506100ea6104cf565b6040518080602001828103825283818151815260200191508051906020019080838360005b8381101561012a57808201518184015260208101905061010f565b50505050905090810190601f1680156101575780820380516001836020036101000a031916815260200191505b509250505060405180910390f35b34801561017157600080fd5b506101a6600480360381019080803573ffffffffffffffffffffffffffffffffffffffff16906020019092919050505061056d565b6040518082815260200191505060405180910390f35b3480156101c857600080fd5b506101d1610585565b6040518082815260200191505060405180910390f35b6101ef61058b565b005b3480156101fd57600080fd5b506102066106fc565b604051808273ffffffffffffffffffffffffffffffffffffffff1673ffffffffffffffffffffffffffffffffffffffff16815260200191505060405180910390f35b34801561025457600080fd5b5061025d610721565b6040518080602001828103825283818151815260200191508051906020019080838360005b8381101561029d578082015181840152602081019050610282565b50505050905090810190601f1680156102ca5780820380516001836020036101000a031916815260200191505b509250505060405180910390f35b3480156102e457600080fd5b506102ed6107bf565b005b3480156102fb57600080fd5b50610304610857565b005b34801561031257600080fd5b50610331600480360381019080803590602001909291905050506108e8565b005b34801561033f57600080fd5b5061034861094e565b6040518082815260200191505060405180910390f35b6103fe600480360381019080803590602001908201803590602001908080601f0160208091040260200160405190810160405280939291908181526020018383808284378201915050505050509192919290803590602001908201803590602001908080601f0160208091040260200160405190810160405280939291908181526020018383808284378201915050505050509192919290505050610954565b005b34801561040c57600080fd5b5061044b600480360381019080803573ffffffffffffffffffffffffffffffffffffffff169060200190929190803590602001909291905050506109dd565b005b34801561045957600080fd5b50610462610ba4565b6040518082815260200191505060405180910390f35b34801561048457600080fd5b5061048d610baa565b604051808273ffffffffffffffffffffffffffffffffffffffff1673ffffffffffffffffffffffffffffffffffffffff16815260200191505060405180910390f35b60058054600181600116156101000203166002900480601f0160208091040260200160405190810160405280929190818152602001828054600181600116156101000203166002900480156105655780601f1061053a57610100808354040283529160200191610565565b820191906000526020600020905b81548152906001019060200180831161054857829003601f168201915b505050505081565b60026020528060005260406000206000915090505481565b60075481565b6000809054906101000a900473ffffffffffffffffffffffffffffffffffffffff1673ffffffffffffffffffffffffffffffffffffffff163373ffffffffffffffffffffffffffffffffffffffff1614156105e5576106fa565b6004546003541015156105f757600080fd5b34600260003373ffffffffffffffffffffffffffffffffffffffff1673ffffffffffffffffffffffffffffffffffffffff168152602001908152602001600020819055506003600081548092919060010191905055507fe1fffcc4923d04b559f4d29a8bfc6cda04eb5b0d3c460751c2402c5c5cc9109c3334604051808373ffffffffffffffffffffffffffffffffffffffff1673ffffffffffffffffffffffffffffffffffffffff1681526020018281526020019250505060405180910390a133600160006101000a81548173ffffffffffffffffffffffffffffffffffffffff021916908373ffffffffffffffffffffffffffffffffffffffff1602179055505b565b6000809054906101000a900473ffffffffffffffffffffffffffffffffffffffff1681565b60068054600181600116156101000203166002900480601f0160208091040260200160405190810160405280929190818152602001828054600181600116156101000203166002900480156107b75780601f1061078c576101008083540402835291602001916107b7565b820191906000526020600020905b81548152906001019060200180831161079a57829003601f168201915b505050505081565b6000809054906101000a900473ffffffffffffffffffffffffffffffffffffffff1673ffffffffffffffffffffffffffffffffffffffff163373ffffffffffffffffffffffffffffffffffffffff1614151561081a57610855565b600160009054906101000a900473ffffffffffffffffffffffffffffffffffffffff1673ffffffffffffffffffffffffffffffffffffffff16ff5b565b6000809054906101000a900473ffffffffffffffffffffffffffffffffffffffff1673ffffffffffffffffffffffffffffffffffffffff163373ffffffffffffffffffffffffffffffffffffffff1614156108e6576000809054906101000a900473ffffffffffffffffffffffffffffffffffffffff1673ffffffffffffffffffffffffffffffffffffffff16ff5b565b6000809054906101000a900473ffffffffffffffffffffffffffffffffffffffff1673ffffffffffffffffffffffffffffffffffffffff163373ffffffffffffffffffffffffffffffffffffffff161415156109435761094b565b806004819055505b50565b60045481565b336000806101000a81548173ffffffffffffffffffffffffffffffffffffffff021916908373ffffffffffffffffffffffffffffffffffffffff1602179055506001600481905550600060038190555081600590805190602001906109ba929190610bd0565b5080600690805190602001906109d1929190610bd0565b50346007819055505050565b60008060009054906101000a900473ffffffffffffffffffffffffffffffffffffffff1673ffffffffffffffffffffffffffffffffffffffff163373ffffffffffffffffffffffffffffffffffffffff161415610a3957610b9f565b81600260008573ffffffffffffffffffffffffffffffffffffffff1673ffffffffffffffffffffffffffffffffffffffff168152602001908152602001600020541415610b9e57309050818173ffffffffffffffffffffffffffffffffffffffff1631101515610b9d578273ffffffffffffffffffffffffffffffffffffffff166108fc839081150290604051600060405180830381858888f19350505050507fbb28353e4598c3b9199101a66e0989549b659a59a54d2c27fbb183f1932c8e6d8383604051808373ffffffffffffffffffffffffffffffffffffffff1673ffffffffffffffffffffffffffffffffffffffff1681526020018281526020019250505060405180910390a16000600260008573ffffffffffffffffffffffffffffffffffffffff1673ffffffffffffffffffffffffffffffffffffffff16815260200190815260200160002081905550600360008154809291906001900391905055505b5b5b505050565b60035481565b600160009054906101000a900473ffffffffffffffffffffffffffffffffffffffff1681565b828054600181600116156101000203166002900490600052602060002090601f016020900481019282601f10610c1157805160ff1916838001178555610c3f565b82800160010185558215610c3f579182015b82811115610c3e578251825591602001919060010190610c23565b5b509050610c4c9190610c50565b5090565b610c7291905b80821115610c6e576000816000905550600101610c56565b5090565b905600a165627a7a723058203aa79c5248e27f697833e6a4a77d932182f704429b1822eb0d790aaf43c05b9c0029",
  "source": "pragma solidity ^0.4.6;\r\n\r\ncontract Conference {  // can be killed, so the owner gets sent the money in the end\r\n\r\n\taddress public organizer;\r\n\taddress public contractor;\r\n\tmapping (address => uint) public registrantsPaid;\r\n\tuint public numRegistrants;\r\n\tuint public quota;\r\n\tstring public name;\r\n\tstring public description;\r\n\tuint public reward;\r\n\t\r\n\r\n\tevent Deposit(address _from, uint _amount); // so you can log the event\r\n\tevent Refund(address _to, uint _amount); // so you can log the event\r\n\r\n\tconstructor()public {\r\n\r\n\t}\r\n\r\n\tfunction createConference(string _name, string _description) public payable {\r\n\t\torganizer = msg.sender;\t\t\r\n\t\tquota = 1;\r\n\t\tnumRegistrants = 0;\r\n\t\tname = _name;\r\n\t\tdescription = _description;\r\n\t\treward = msg.value;\r\n\t}\r\n\r\n\tfunction applyToJob() public payable{\r\n\t    if (msg.sender == organizer) { return; }\r\n\t\tif (numRegistrants >= quota) { \r\n\t\t\tthrow; // throw ensures funds will be returned\r\n\t\t}\r\n\t\tregistrantsPaid[msg.sender] = msg.value;\r\n\t\tnumRegistrants++;\r\n\t\tDeposit(msg.sender, msg.value);\r\n\t\tcontractor = msg.sender;\r\n\t}\r\n\r\n// extention: Spreminjanje stevila izvajalcev na projektu\r\n\tfunction changeQuota(uint newquota) public {  \r\n\t                                              \r\n\t\tif (msg.sender != organizer) { return; }\r\n\t\tquota = newquota;\r\n\t}\r\n\t\r\n\t// se prozi ko je narocnik zadovoljen s koncnim izdelkom\r\n\tfunction successfulProject() public {  \r\n\t\tif (msg.sender != organizer) { return; }\r\n\t\tselfdestruct(contractor);\r\n\t}\r\n\t\r\n\r\n\tfunction resignFromJob(address recipient, uint amount) public  {\r\n\t\tif (msg.sender == organizer) { return; }\r\n\t\tif (registrantsPaid[recipient] == amount) { \r\n\t\t\taddress myAddress = this;\r\n\t\t\tif (myAddress.balance >= amount) { \r\n\t\t\t\t(recipient.send(amount));\r\n\t\t\t\tRefund(recipient, amount);\r\n\t\t\t\tregistrantsPaid[recipient] = 0;\r\n\t\t\t\tnumRegistrants--;\r\n\t\t\t}\r\n\t\t}\r\n\t\treturn;\r\n\t}\r\n\r\n\tfunction destroy() public{\r\n\t\tif (msg.sender == organizer) { // without this funds could be locked in the contract forever!\r\n\t\t\tselfdestruct(organizer);\r\n\t\t}\r\n\t}\r\n}",
  "sourcePath": "C:\\Users\\tomas\\Documents\\4.sem\\blockchain\\krompir\\contracts\\Conference.sol",
  "compiler": {
    "name": "solc",
    "version": "0.4.24+commit.e67f0147.Emscripten.clang"
  },
  "schemaVersion": "2.0.1",
  "updatedAt": "2018-10-04T19:41:07.167Z"
}